:100000000C942A000C943F000C943F000C943F0089
:100010000C943F000C943F000C943F000C943F0064
:100020000C943F000C943F000C943F000C943F0054
:100030000C943F000C943F000C943F000C943F0044
:100040000C943F000C943F000C943F000C943F0034
:100050000C943F0011241FBECFE5D8E0DEBFCDBF1A
:1000600010E0A0E6B0E0E4E8F6E002C005900D92F2
:10007000A238B107D9F70E940D010C9440030C94EB
:100080000000969A00C096980895CF93DF93D82FDA
:10009000662311F0949A01C09498959881B38F606B
:1000A00081BBC2B3C07F8D2F82958F708C2B82BB9A
:1000B0000E944100DF70DC2BD2BB0E944100CF6068
:1000C000C2BBDF91CF910895882311F0949A01C0AB
:1000D0009498959A81B3807F81BB969A00C090B323
:1000E000969800C0969A00C080B39295907F8F70CA
:1000F0009698892B089580E00E9464008823DCF3A1
:1001000088E090E00197F1F780E00E946400089594
:10011000CF93C82F0E947B0060E08C2F0E94450087
:10012000CF910895611104C080580E9488000895FD
:1001300080540E948800089581E00E9488000895FC
:1001400082E00E9488000895CF93C82F0E947B0010
:10015000CA3049F4803410F480E401C080E0805853
:100160000E94880004C061E08C2F0E944500CF915E
:100170000895CF93DF93EC012196FC0180818823C1
:1001800029F00E94A40089918111FBCFDF91CF91CA
:100190000895CF93C82F81B38F6781BBE0E0FAEF5A
:1001A0003197F1F7919A909A0E944100E0E0FEE4C5
:1001B0003197F1F70E944100E0E0F1E03197F1F76B
:1001C0000E944100E0E0F1E03197F1F790980E9441
:1001D0004100E0E0F1E03197F1F788E20E94880009
:1001E00088E00E9488000E949C0086E00E948800AF
:1001F0008C2F0E948800CF91089580E487B987E80A
:1002000086B9089597B18770987F982B97B9369AD9
:100210003699FECF84B195B10895CF93DF93CDB7D2
:10022000DEB72A970FB6F894DEBF0FBECDBF8FEFB3
:1002300087BB84BB0E94FD008EE00E94C9000E9423
:100240009C0060E080E00E9492008FE19EE40197B4
:10025000F1F700C000006894772471F833243394D8
:10026000412C0F2EF3E08F2E912CF02D6894AA24B0
:10027000A1F8B12C532C642C80E00E940201BC0137
:1002800080E090E00E94720227ED33EA40E050E403
:100290000E94D9010E9441026B017C018B0160E048
:1002A00080E00E9492004AE050E0BE016F5F7F4F05
:1002B000C6010E94000382E690E00E94B900CE01D0
:1002C00001960E94B90060E087E00E94920088E6F3
:1002D00090E00E94B90080916000909161000197C8
:1002E00061F515BA18BA0432110594F0B0926100A4
:1002F000A09260000E949C000E94A00061E080E04B
:100300000E9492008AE690E00E94B90075BA18BA7D
:100310000F30110594F490926100809260000E9469
:100320009C000E94A00061E080E00E94920084E7AF
:1003300090E00E94B90015BA78BA8091600090915F
:1003400061000297B1F4093111050CF095CF50927C
:100350006000609261000E949C000E94A00061E029
:1003600080E00E9492008EE790E00E94B90015BAEA
:1003700018BA8091600090916100039709F07CCFDA
:1003800015BA78BA0F3111050CF476CF30926000AF
:10039000409261000E949C000E94A00061E080E009
:1003A0000E9492008EE790E00E94B90015BA18BA38
:1003B00063CF0CD0EBC0E3D040F0DAD030F021F4C2
:1003C0005F3F19F0CCC0511115C1CFC0F0D098F3E8
:1003D0009923C9F35523B1F3951B550BBB27AA27C6
:1003E00062177307840738F09F5F5F4F220F331F38
:1003F000441FAA1FA9F333D00E2E3AF0E0E830D004
:1004000091505040E695001CCAF729D0FE2F27D006
:10041000660F771F881FBB1F261737074807AB07D4
:10042000B0E809F0BB0B802DBF01FF2793585F4F49
:100430002AF09E3F510568F092C0DCC05F3FECF3AC
:10044000983EDCF3869577956795B795F7959F5F0E
:10045000C9F7880F911D9695879597F90895E1E062
:10046000660F771F881FBB1F621773078407BA07C1
:1004700020F0621B730B840BBA0BEE1F88F7E0951C
:10048000089504D06894B111B5C0089598D088F04B
:100490009F5790F0B92F9927B751A0F0D1F0660F70
:1004A000771F881F991F1AF0BA95C9F712C0B1308B
:1004B00081F09FD0B1E008959CC0672F782F8827E6
:1004C000B85F39F0B93FCCF3869577956795B395CA
:1004D000D9F73EF490958095709561957F4F8F4F39
:1004E0009F4F0895E89409C097FB3EF4909580953E
:1004F000709561957F4F8F4F9F4F9923A9F0F92FEA
:1005000096E9BB279395F695879577956795B79567
:10051000F111F8CFFAF4BB0F11F460FF1BC06F5F4D
:100520007F4F8F4F9F4F16C0882311F096E911C05F
:10053000772321F09EE8872F762F05C0662371F080
:1005400096E8862F70E060E02AF09A95660F771F94
:10055000881FDAF7880F9695879597F9089597F988
:100560009F6780E870E060E008959FEF80EC089559
:1005700000240A9416161706180609060895002482
:100580000A9412161306140605060895092E0394FC
:10059000000C11F4882352F0BB0F40F4BF2B11F470
:1005A00060FF04C06F5F7F4F8F4F9F4F089557FDCF
:1005B0009058440F551F59F05F3F71F04795880FD1
:1005C00097FB991F61F09F3F79F087950895121668
:1005D00013061406551FF2CF4695F1DF08C0161614
:1005E00017061806991FF1CF8695710561050894C5
:1005F0000895E894BB2766277727CB0197F90895DC
:100600004532510520F4423010F00C940B03FB01ED
:100610001082CB010895BB274A3031F4992322F48C
:10062000BDE2909581959F4F0C941703BB27FB016A
:100630005527AA27880F991FAA1FA41710F0A41BDB
:1006400083955051B9F7A05DAA3308F0A95DA19335
:10065000009779F7B111B1931192CB010C9430034B
:10066000DC01FC01672F71917723E1F7329704C019
:100670007C916D9370836291AE17BF07C8F30895A4
:04068000F894FFCF1C
:10068400010054656D703D004300436F6F6C6572EB
:10069400204F4E00486561746572204F4E002D2D29
:0206A4002D0027
:00000001FF
